{
  "_format": "hh-sol-artifact-1",
  "contractName": "Habits",
  "sourceName": "contracts/Habits.sol",
  "abi": [
    {
      "anonymous": false,
      "inputs": [
        {
          "indexed": true,
          "internalType": "address",
          "name": "user",
          "type": "address"
        },
        {
          "indexed": true,
          "internalType": "uint256",
          "name": "day",
          "type": "uint256"
        }
      ],
      "name": "CheckIn",
      "type": "event"
    },
    {
      "anonymous": false,
      "inputs": [
        {
          "indexed": true,
          "internalType": "address",
          "name": "user",
          "type": "address"
        },
        {
          "indexed": true,
          "internalType": "uint256",
          "name": "day",
          "type": "uint256"
        }
      ],
      "name": "CheckOut",
      "type": "event"
    },
    {
      "inputs": [
        {
          "internalType": "uint256",
          "name": "day",
          "type": "uint256"
        }
      ],
      "name": "checkIn",
      "outputs": [],
      "stateMutability": "nonpayable",
      "type": "function"
    },
    {
      "inputs": [
        {
          "internalType": "uint256",
          "name": "day",
          "type": "uint256"
        }
      ],
      "name": "checkOut",
      "outputs": [],
      "stateMutability": "nonpayable",
      "type": "function"
    },
    {
      "inputs": [
        {
          "internalType": "address",
          "name": "",
          "type": "address"
        },
        {
          "internalType": "uint256",
          "name": "",
          "type": "uint256"
        }
      ],
      "name": "checkedIn",
      "outputs": [
        {
          "internalType": "bool",
          "name": "",
          "type": "bool"
        }
      ],
      "stateMutability": "view",
      "type": "function"
    },
    {
      "inputs": [
        {
          "internalType": "address",
          "name": "",
          "type": "address"
        },
        {
          "internalType": "uint256",
          "name": "",
          "type": "uint256"
        }
      ],
      "name": "checkedOut",
      "outputs": [
        {
          "internalType": "bool",
          "name": "",
          "type": "bool"
        }
      ],
      "stateMutability": "view",
      "type": "function"
    }
  ],
  "bytecode": "0x608060405234801561001057600080fd5b50610530806100206000396000f3fe608060405234801561001057600080fd5b506004361061004c5760003560e01c806310b5626e146100515780631bd2eeee14610081578063cb2cc3a01461009d578063e95a644f146100cd575b600080fd5b61006b600480360381019061006691906103da565b6100e9565b6040516100789190610435565b60405180910390f35b61009b60048036038101906100969190610450565b610118565b005b6100b760048036038101906100b291906103da565b610263565b6040516100c49190610435565b60405180910390f35b6100e760048036038101906100e29190610450565b610292565b005b60016020528160005260406000206020528060005260406000206000915091509054906101000a900460ff1681565b6000803373ffffffffffffffffffffffffffffffffffffffff1673ffffffffffffffffffffffffffffffffffffffff168152602001908152602001600020600082815260200190815260200160002060009054906101000a900460ff166101b4576040517f08c379a00000000000000000000000000000000000000000000000000000000081526004016101ab906104da565b60405180910390fd5b60018060003373ffffffffffffffffffffffffffffffffffffffff1673ffffffffffffffffffffffffffffffffffffffff168152602001908152602001600020600083815260200190815260200160002060006101000a81548160ff021916908315150217905550803373ffffffffffffffffffffffffffffffffffffffff167ff65ce03794824579bcd95d8c6743ffc10c4a5e7405fb3876c1abf81453105c4260405160405180910390a350565b60006020528160005260406000206020528060005260406000206000915091509054906101000a900460ff1681565b60016000803373ffffffffffffffffffffffffffffffffffffffff1673ffffffffffffffffffffffffffffffffffffffff168152602001908152602001600020600083815260200190815260200160002060006101000a81548160ff021916908315150217905550803373ffffffffffffffffffffffffffffffffffffffff167fa864a8b988e604bb05d6ce75d53efabb5620c45b15380b7bd0c51dcfa71dda0360405160405180910390a350565b600080fd5b600073ffffffffffffffffffffffffffffffffffffffff82169050919050565b600061037182610346565b9050919050565b61038181610366565b811461038c57600080fd5b50565b60008135905061039e81610378565b92915050565b6000819050919050565b6103b7816103a4565b81146103c257600080fd5b50565b6000813590506103d4816103ae565b92915050565b600080604083850312156103f1576103f0610341565b5b60006103ff8582860161038f565b9250506020610410858286016103c5565b9150509250929050565b60008115159050919050565b61042f8161041a565b82525050565b600060208201905061044a6000830184610426565b92915050565b60006020828403121561046657610465610341565b5b6000610474848285016103c5565b91505092915050565b600082825260208201905092915050565b7f4e6f7420636865636b656420696e207965740000000000000000000000000000600082015250565b60006104c460128361047d565b91506104cf8261048e565b602082019050919050565b600060208201905081810360008301526104f3816104b7565b905091905056fea26469706673582212202e87a5b9ba3f6d0e639225308ef7b5fe1da9df9bdc6be7a4c159ebcef90c876b64736f6c63430008080033",
  "linkReferences": {},
  "deployedLinkReferences": {}
}